:100000000C942A000C94DA020C94DA020C94DA02B2
:100010000C94DA020C94DA020C94DA020C94DA02F0
:100020000C94DA020C94DA020C94DA020C94DA02E0
:100030000C94DA020C94DA020C94DA020C94DA02D0
:100040000C94DA020C94DA020C94DA020C94DA02C0
:100050000C94DA0211241FBECFE5D8E0DEBFCDBF7D
:0C0060000E94CE010C943400F894FFCFF5
:0B006C004D4153544552204D435500B8
:10007800843008F072C0683008F06FC04130A1F5D4
:10008800813089F028F08230C9F0833011F1089569
:100098002AB381E090E002C0880F991F6A95E2F7C1
:1000A800822B8ABB089527B381E090E002C0880FB5
:1000B800991F6A95E2F7822B87BB089524B381E0E4
:1000C80090E002C0880F991F6A95E2F7822B84BBE3
:1000D800089521B381E090E002C0880F991F6A95C6
:1000E800E2F7822B81BB0895411137C0813091F02E
:1000F80028F08230D9F0833029F108952AB381E0BD
:1001080090E002C0880F991F6A95E2F780958223D4
:100118008ABB089527B381E090E002C0880F991F39
:100128006A95E2F78095822387BB089524B381E01E
:1001380090E002C0880F991F6A95E2F780958223A4
:1001480084BB089521B381E090E002C0880F991F15
:0C0158006A95E2F78095822381BB089530
:10016400843008F072C0683008F06FC04130A1F5E7
:10017400813089F028F08230C9F0833011F108957C
:100184002BB381E090E002C0880F991F6A95E2F7D3
:10019400822B8BBB089528B381E090E002C0880FC6
:1001A400991F6A95E2F7822B88BB089525B381E0F5
:1001B40090E002C0880F991F6A95E2F7822B85BBF5
:1001C400089522B381E090E002C0880F991F6A95D8
:1001D400E2F7822B82BB0895411137C0813091F040
:1001E40028F08230D9F0833029F108952BB381E0CF
:1001F40090E002C0880F991F6A95E2F780958223E8
:100204008BBB089528B381E090E002C0880F991F4A
:100214006A95E2F78095822388BB089525B381E02F
:1002240090E002C0880F991F6A95E2F780958223B7
:1002340085BB089522B381E090E002C0880F991F26
:0C0244006A95E2F78095822382BB089542
:10025000CF93C82F8BB38F709C2F907F892B8BBB34
:1002600040E061E081E00E94B20040E062E081E0B5
:100270000E94B20041E063E081E00E94B2008FE1A1
:100280009EE40197F1F700C0000040E063E081E0E8
:100290000E94B2008FE19EE40197F1F700C00000D8
:1002A0002BB330E1C39FC0011124922F9F70892B83
:1002B0008BBB40E061E081E00E94B20040E062E080
:1002C00081E00E94B20041E063E081E00E94B20060
:1002D0008FE19EE40197F1F700C0000040E063E089
:1002E00081E00E94B2008FE19EE40197F1F700C027
:0602F0000000CF9108950B
:1002F600CF93C82F8BB38F709C2F907F892B8BBB8E
:1003060041E061E081E00E94B20040E062E081E00D
:100316000E94B20041E063E081E00E94B2008FE1FA
:100326009EE40197F1F700C0000040E063E081E041
:100336000E94B2008FE19EE40197F1F700C0000031
:100346002BB330E1C39FC0011124922F9F70892BDC
:100356008BBB41E061E081E00E94B20040E062E0D8
:1003660081E00E94B20041E063E081E00E94B200B9
:100376008FE19EE40197F1F700C0000040E063E0E2
:1003860081E00E94B2008FE19EE40197F1F700C080
:060396000000CF91089564
:10039C00CF93DF93CDB7DEB72B970FB6F894DEBFB4
:1003AC000FBECDBF2CE630E040E08BE0F901DE0162
:1003BC001196742F0E94BE0287E690E00E94CB0239
:1003CC000E944A020E94A1020E946D02CE01019677
:1003DC000E948E022FEF31EE84E02150304080409D
:1003EC00E1F700C000000E94D7029FEF21EE34E03D
:1003FC00915020403040E1F700C000000E94B10253
:10040C008FEF91EE24E0815090402040E1F700C046
:04041C000000E9CF24
:100420008430B8F56130A1F4813049F028F0823091
:1004300049F0833051F008958FEF8ABB08958FEF14
:1004400087BB08958FEF84BB08958FEF81BB08951C
:10045000611110C0813041F028F0823039F08330D2
:1004600039F008951ABA089517BA089514BA08957C
:1004700011BA0895813041F028F0823039F083308C
:1004800039F008956ABB089567BB089564BB089569
:0404900061BB0895AF
:1004940041E065E081E00E943C0041E064E081E0ED
:1004A4000E943C0041E067E081E00E943C0040E0A3
:1004B40066E081E00E943C0041E064E081E00E944B
:1004C400B2008DB180648DB98DB180618DB98DB16B
:0604D40081608DB908955E
:1004DA008BB361E00E94100261E081E00E94100289
:1004EA008FE59AEE0197F1F700C0000083E30E94BE
:1004FA00280182E30E94280188E20E9428018CE0F8
:10050A000E94280186E00E94280181E00E942801B9
:02051A00089542
:10051C000F931F93CF938C01C0E003C00E947B010B
:10052C00CF5FF801EC0FF11D80818111F7CFCF91D6
:06053C001F910F910895CC
:1005420041E062E082E00E943C0041E067E082E03C
:100552000E943C0041E063E083E00E943C00089579
:10056200CF93C82F40E064E081E00E94B200CFB98F
:0A057200779BFECF8FB1CF91089563
:10057C00992777FD05C005900D920197E1F7089535
:0A058C0001900D920197E1F7089528
:1005960090BD89B98AB180618AB98AB188608AB901
:0805A60080B5866880BD089550
:0605AE008BB18CB1089531
:0405B4000C940000A3
:00000001FF
