:100000000C942A000C9413040C9413040C94130401
:100010000C9413040C9413040C9413040C94130404
:100020000C9413040C9413040C9413040C941304F4
:100030000C9413040C9413040C9413040C941304E4
:100040000C9413040C9413040C9413040C941304D4
:100050000C94130411241FBECFE5D8E0DEBFCDBF42
:0C0060000E9462000C943400F894FFCF62
:10006C00202020534D41525420484F4D4500454EC1
:10007C00472045534C414D204641594144004C4585
:10008C00442031204F4E004C45442032204F4E002E
:10009C004C45442033204F4E004C45442031204FDA
:1000AC004646004C45442032204F4646004C4544C1
:0700BC002033204F464600EF
:1000C400CF93DF93CDB7DEB7C755D1090FB6F894F8
:1000D400DEBF0FBECDBF2CE630E040E08EE0F9017C
:1000E400DE011196742F0E94EF032AE730E040E00E
:1000F40080E1F901DE011F96742F0E94EF032AE8C4
:1001040030E040E089E0F901DE015F96742F0E943F
:10011400EF0323E930E040E089E0F901DE0198963D
:10012400742F0E94EF032CE930E040E089E0F901EC
:10013400DE01D196742F0E94EF0325EA30E040E0FF
:100144008AE0F901DE01DA96742F0E94EF032FEAA8
:1001540030E040E08AE0F901DE01AC5BBF4F742F70
:100164000E94EF0329EB30E040E08AE0F901DE0170
:10017400A25BBF4F742F0E94EF030E9467030E948B
:10018400C5030E944603CE0101960E94B203AE014C
:10019400415F5F4F61E081E00E94FC032FEF81EE3D
:1001A40094E0215080409040E1F700C000000E949C
:1001B4000B048333E9F128F4813361F0823309F1CC
:1001C400F6CF853309F464C008F449C0863309F4D2
:1001D40076C0EDCF80E00E948203CE014F960E944C
:1001E400E2030E940704CE014F960E94B2032FEF50
:1001F40081EE94E0215080409040E1F700C000007F
:10020400D6CF80E00E949A03CE01CA960E94E203F0
:100214000E940704CE01CA960E94B2032FEF81EE1A
:1002240094E0215080409040E1F700C00000BFCF2F
:1002340081E00E948203CE0188960E94E2030E941C
:100244000704CE0188960E94B2032FEF81EE94E05A
:10025400215080409040E1F700C00000A8CF81E029
:100264000E949A03CE018C5B9F4F0E94E2030E947E
:100274000704CE018C5B9F4F0E94B2032FEF81EEE7
:1002840094E0215080409040E1F700C000008FCFFF
:1002940082E00E948203CE01C1960E94E2030E9482
:1002A4000704CE01C1960E94B2032FEF81EE94E0C1
:1002B400215080409040E1F700C0000078CF82E0F8
:1002C4000E949A03CE01825B9F4F0E94E2030E9428
:1002D4000704CE01825B9F4F0E94B2032FEF81EE91
:1002E40094E0215080409040E1F700C000005FCFCF
:1002F400843008F072C0683008F06FC04130A1F556
:10030400813089F028F08230C9F0833011F10895EA
:100314002AB381E090E002C0880F991F6A95E2F742
:10032400822B8ABB089527B381E090E002C0880F36
:10033400991F6A95E2F7822B87BB089524B381E065
:1003440090E002C0880F991F6A95E2F7822B84BB64
:10035400089521B381E090E002C0880F991F6A9547
:10036400E2F7822B81BB0895411137C0813091F0AF
:1003740028F08230D9F0833029F108952AB381E03E
:1003840090E002C0880F991F6A95E2F78095822356
:100394008ABB089527B381E090E002C0880F991FBB
:1003A4006A95E2F78095822387BB089524B381E0A0
:1003B40090E002C0880F991F6A95E2F78095822326
:1003C40084BB089521B381E090E002C0880F991F97
:0C03D4006A95E2F78095822381BB0895B2
:1003E000843008F072C0683008F06FC04130A1F569
:1003F000813089F028F08230C9F0833011F10895FE
:100400002BB381E090E002C0880F991F6A95E2F754
:10041000822B8BBB089528B381E090E002C0880F47
:10042000991F6A95E2F7822B88BB089525B381E076
:1004300090E002C0880F991F6A95E2F7822B85BB76
:10044000089522B381E090E002C0880F991F6A9559
:10045000E2F7822B82BB0895411137C0813091F0C1
:1004600028F08230D9F0833029F108952BB381E050
:1004700090E002C0880F991F6A95E2F78095822369
:100480008BBB089528B381E090E002C0880F991FCC
:100490006A95E2F78095822388BB089525B381E0B1
:1004A00090E002C0880F991F6A95E2F78095822339
:1004B00085BB089522B381E090E002C0880F991FA8
:0C04C0006A95E2F78095822382BB0895C4
:1004CC00CF93C82F8BB38F709C2F907F892B8BBBB6
:1004DC0040E061E081E00E94F00140E062E081E0F8
:1004EC000E94F00141E063E081E00E94F0018FE1A5
:1004FC009EE40197F1F700C0000040E063E081E06A
:10050C000E94F0018FE19EE40197F1F700C000001A
:10051C002BB330E1C39FC0011124922F9F70892B04
:10052C008BBB40E061E081E00E94F00140E062E0C2
:10053C0081E00E94F00141E063E081E00E94F00163
:10054C008FE19EE40197F1F700C0000040E063E00A
:10055C0081E00E94F0018FE19EE40197F1F700C069
:06056C000000CF9108958C
:10057200CF93C82F8BB38F709C2F907F892B8BBB0F
:1005820041E061E081E00E94F00140E062E081E050
:100592000E94F00141E063E081E00E94F0018FE1FE
:1005A2009EE40197F1F700C0000040E063E081E0C3
:1005B2000E94F0018FE19EE40197F1F700C0000074
:1005C2002BB330E1C39FC0011124922F9F70892B5E
:1005D2008BBB41E061E081E00E94F00140E062E01B
:1005E20081E00E94F00141E063E081E00E94F001BD
:1005F2008FE19EE40197F1F700C0000040E063E064
:1006020081E00E94F0018FE19EE40197F1F700C0C2
:060612000000CF910895E5
:100618008430B8F56130A1F4813049F028F0823097
:1006280049F0833051F008958FEF8ABB08958FEF1A
:1006380087BB08958FEF84BB08958FEF81BB089522
:10064800611110C0813041F028F0823039F08330D8
:1006580039F008951ABA089517BA089514BA089582
:1006680011BA0895813041F028F0823039F0833092
:1006780039F008956ABB089567BB089564BB08956F
:0406880061BB0895B5
:10068C008BB361E00E940C0361E081E00E940C03DB
:10069C008FE59AEE0197F1F700C0000083E30E940A
:1006AC00660282E30E94660288E20E9466028CE087
:1006BC000E94660286E00E94660281E00E94660249
:0206CC0008958F
:1006CE0040E065E081E00E947A0140E064E081E074
:1006DE000E947A0140E067E081E00E947A0141E0E9
:1006EE0066E081E00E947A018DB180648DB98DB192
:0606FE008F7E8DB9089506
:10070400813051F018F0823069F0089541E062E0E0
:1007140082E00E94F001089541E067E082E00E94D7
:10072400F001089541E063E083E00E94F001089540
:10073400813051F018F0823069F0089540E062E0B1
:1007440082E00E94F001089540E067E082E00E94A8
:10075400F001089540E063E083E00E94F001089511
:100764000F931F93CF938C01C0E003C00E94B90282
:10077400CF5FF801EC0FF11D80818111F7CFCF918C
:060784001F910F91089582
:10078A0041E062E082E00E947A0141E067E082E0B3
:10079A000E947A0141E063E083E00E947A010895B1
:1007AA00882329F0813021F490E4960F01C0962F16
:0A07BA00892F80680E9466020895EE
:1007C400CF93DF93EC0103C00E940F04219688812C
:0A07D4008111FACFDF91CF91089553
:1007DE00992777FD05C005900D920197E1F70895D1
:0A07EE0001900D920197E1F70895C4
:1007F800CF93DF93EA010E94D503CE010E94B20392
:06080800DF91CF9108957D
:08080E0081E00E9466020895DA
:08081600779BFECF8FB108951E
:08081E005D9BFECF8CB908952B
:040826000C9400002E
:00000001FF
